0020180222                                                                                                                        
864509050105067660200090250070510011000588544010000000990018022102002 AETINTECON000000000573531802210001201802120000001054        DRINP/20180222/OFFUS NIGHT  I02K902438XR2B0Z180221
864300007400079006000070000010510010020155949810000001612218021710002 AFBNK     9362755002    1802170001201801030000000040        DRINP/20180222/OFFUS NIGHT  I02G93836G343M0V180221
864300007400079006000070000020510010020155949810000012000018021710002 AFBNK     9362659002    1802170001201801030000000039        DRINP/20180222/OFFUS NIGHT  I02G93836JZ43M0W180221
864300007400079006000070000030510010020155949810000008969518021710002 AFBNK     9362674008    1802170001201801030000000042        DRINP/20180222/OFFUS NIGHT  I02G93836L543M0X180221
864300007400079006000070000040510010020155949810000003409918021710002 AFBNK     9362571001    1802170001201801030000000035        DRINP/20180222/OFFUS NIGHT  I02G93836MC43M0Y180221
9900108121234320000000000000269600000000000000005                                                                                 